:03000000020800F3
:0C080000787FE4F6D8FD758119020847E6
:0F09DA000A083F065B4F666D7D077F6F011600B1
:0B09A10074082FF8E6F5807F0A7E0046
:1009AC00D3EF9400EE940040147D6E7C00ED1D702E
:0D09BC00011CED4C70F7EF1F70E61E80E38C
:0109C900220B
:10088C00AE12AF137C007D0A12094C8D19AE12AF5B
:10089C00137C007D0A12094CAB07AE14AF157C001B
:1008AC007D0A12094CAA05AE14AF157C007D0A1204
:1008BC00094CC290C291C2921209A1D290C291C2AB
:1008CC0092AF021209A1C290D291C292AF03120947
:1008DC00A1D290D291C29274082519F8E6F5807FC6
:0608EC000A7E000209ACC7
:1009CA00758901758C3C758AB0D2AFD2A9D28C22B6
:03000B000208F2F6
:1008F200C0E0C0D075D000C006C007758C3C758AB8
:10090200B00516AF16EF3395E0FEC3EF9414EE6414
:10091200809480402C7516000513E51370020512B1
:1009220063A0FFE513643C45127016F512F513053A
:1009320015E51570020514643C45147004F514F5B0
:0A09420015D007D006D0D0D0E03267
:0B09EA001209CAE4F5A012088C80FB83
:10080C000209EAE493A3F8E493A34003F68001F20F
:10081C0008DFF48029E493A3F85407240CC8C333ED
:10082C00C4540F4420C8834004F456800146F6DFBC
:10083C00E4800B01020408102040809009DAE47E69
:10084C00019360BCA3FF543F30E509541FFEE493B1
:10085C00A360010ECF54C025E060A840B8E493A378
:10086C00FAE493A3F8E493A3C8C582C8CAC583CAA3
:10087C00F0A3C8C582C8CAC583CADFE9DEE780BE5B
:0109E900000D
:10094C00BC000BBE0029EF8DF084FFADF022E4CC8F
:10095C00F875F008EF2FFFEE33FEEC33FCEE9DEC58
:10096C00984005FCEE9DFE0FD5F0E9E4CEFD22ED9E
:10097C00F8F5F0EE8420D21CFEADF075F008EF2FE8
:10098C00FFED33FD4007985006D5F0F222C398FDD9
:05099C000FD5F0EA2276
:00000001FF
