:0300000002093FB3
:0C093F00787FE4F6D8FD75811C02098663
:100B64000A083F065B4F666D7D077F6F0112000127
:0F0B7400130A02140018011800011600011700DF
:0B0B3B0074082FF8E6F5807F017E00B3
:100B4600D3EF9400EE940040147D6E7C00ED1D7092
:0D0B5600011CED4C70F7EF1F70E61E80E3F0
:010B6300226F
:1008AD00E51275F00A12080085F01AE51275F00AC6
:1008BD00120800F519E51375F00A12080085F01CF1
:1008CD00E51375F00A120800F51BAE14AF157C0088
:1008DD007D0A120822AB05AE14AF157C007D0A12FD
:1008ED000822AA07C290C291C2927408251B120B4E
:1008FD003ED290C291C2927408251C120B3EC2903A
:10090D00D291C29274082519120B3ED290D291C287
:10091D00927408251A120B3EC290C291D292AF0268
:10092D00120B3BD290C291D292AF03120B3BE4F566
:01093D008039
:01093E002296
:100ACD00E51675F00A120800AFF0A907E51675F0E6
:100ADD000A120800FFE51775F00A120800AEF0AB18
:100AED0006E51775F00A120800FAC294C295C2966F
:100AFD0074082FF8E6F5B0120B42D294C295C29647
:100B0D00740829F8E6F5B0120B42C294D295C2963C
:100B1D0074082AF8E6F5B0120B42D294D295C2961B
:0D0B2D0074082BF8E6F5B0120B42E4F580D9
:010B3A002298
:090BC600B2A07F327E00020B4652
:100B8400AF12EF3395E04F700DAF13EF3395E04F95
:0F0B94007004F514F515E51545147002B2A7228B
:1009CB0020A20F120B4220A20675140075151830C9
:1009DB00A2FD30A13220A30B120B4220A30205165D
:1009EB0030A3FD20A40D120B4220A40405160516FE
:1009FB0030A4FD20A54D120B4220A506740325162D
:100A0B00F51620A53E80FB20A30F7F057E00120B61
:100A1B004620A302051730A3FD20A4117F057E00FD
:100A2B00120B4620A4040517051730A4FD20A513AF
:100A3B007F057E00120B4620A50674032517F517BC
:040A4B0030A5FD22B3
:100BB600758901758C3C758AB0D2AFD2A9D28C22C8
:03000B00020A4F97
:100A4F00C0E0C0D075D000C004C005C006C0077597
:100A5F008C3C758AB00518AF18EF3395E0FEC3EFE5
:100A6F009414EE6480948040487518001512E515B3
:100A7F00151570021514E5146480948050067514D2
:100A8F0000751500AF12EF3395E0FED3EF9400EE33
:100A9F0064809480501B151375123BAF13EF339581
:100AAF00E0C3648094805009751300751200120B17
:0E0ABF00C6D007D006D005D004D0D0D0E0328B
:100BA300120BB6D2A01208AD120ACD1209CB120B4A
:030BB3008480F249
:10094B00020BA3E493A3F8E493A34003F68001F214
:10095B0008DFF48029E493A3F85407240CC8C333AD
:10096B00C4540F4420C8834004F456800146F6DF7C
:10097B00E4800B0102040810204080900B64E47E9D
:10098B00019360BCA3FF543F30E509541FFEE49371
:10099B00A360010ECF54C025E060A840B8E493A338
:1009AB00FAE493A3F8E493A3C8C582C8CAC583CA63
:1009BB00F0A3C8C582C8CAC583CADFE9DEE780BE1B
:010B83000071
:10080000C2D530F707B2D563F0FF05F030E70CB280
:10081000D5F4048463F0FF05F080018430D502F440
:020820000422B0
:10082200C2D5EC30E709B2D5E4C39DFDE49CFCEEF1
:1008320030E715B2D5E4C39FFFE49EFE120858C309
:10084200E49DFDE49CFC800312085830D507C3E404
:060852009FFFE49EFE2260
:10085800BC000BBE0029EF8DF084FFADF022E4CC84
:10086800F875F008EF2FFFEE33FEEC33FCEE9DEC4D
:10087800984005FCEE9DFE0FD5F0E9E4CEFD22ED93
:10088800F8F5F0EE8420D21CFEADF075F008EF2FDD
:10089800FFED33FD4007985006D5F0F222C398FDCE
:0508A8000FD5F0EA226B
:00000001FF
