:030000000209D51D
:0C09D500787FE4F6D8FD75811C020A1C36
:100B6B000A083F065B4F666D7D077F6F0112000120
:0F0B7B00130202140018011800011600011700E0
:0B0B420074082FF8E6F5807F017E00AC
:100B4D00D3EF9400EE940040147D6E7C00ED1D708B
:0D0B5D00011CED4C70F7EF1F70E61E80E3E9
:010B6A002268
:10094300E51275F00A12080085F01AE51275F00A2F
:10095300120800F519E51375F00A12080085F01C5A
:10096300E51375F00A120800F51BAE14AF157C00F1
:100973007D0A120822AB05AE14AF157C007D0A1266
:100983000822AA07C290C291C2927408251B120BB7
:1009930045D290C291C2927408251C120B45C29095
:1009A300D291C29274082519120B45D290D291C2EA
:1009B300927408251A120B45C290C291D292AF02CB
:1009C300120B42D290C291D292AF03120B42E4F5C2
:0109D30080A3
:0109D4002200
:100AD400E51675F00A120800AFF0A907E51675F0DF
:100AE4000A120800FFE51775F00A120800AEF0AB11
:100AF40006E51775F00A120800FAC294C295C29668
:100B040074082FF8E6F5B0120B49D294C295C29638
:100B1400740829F8E6F5B0120B49C294D295C2962E
:100B240074082AF8E6F5B0120B49D294D295C2960D
:0D0B340074082BF8E6F5B0120B49E4F580CB
:010B41002291
:090BAC00E51545147002B2A72200
:1008AD0020A2157F057E00120B4D20A202B2A0756D
:1008BD00140075151830A2FD30A13E20A30F7F0541
:1008CD007E00120B4D20A302051630A3FD20A411AE
:1008DD007F057E00120B4D20A4040516051630A4CD
:1008ED00FD20A5517F057E00120B4D20A50674033A
:1008FD002516F51620A53E80FB20A30F7F057E0053
:10090D00120B4D20A302051730A3FD20A4117F0566
:10091D007E00120B4D20A4040517051730A4FD20F1
:10092D00A5137F057E00120B4D20A5067403251718
:06093D00F51730A5FD22B4
:100B9C00758901758C3C758AB0D2AFD2A9D28C22E2
:03000B00020A6185
:100A6100C0E0C0D075D000C006C007758C3C758A47
:100A7100B00518AF18EF3395E0FEC3EF9414EE64A0
:100A810080948040457518001512E5151515700202
:100A91001514E514648094805006751400751500D2
:100AA100AF12EF3395E0FED3EF9400EE64809480B3
:100AB1005018151375123BAF13EF3395E0C36480E3
:100AC10094805006751300751200D007D006D0D05F
:030AD100D0E03240
:100B8B00120B9C120943120AD41208AD120BAC8043
:010B9B00F267
:1009E100020B8BE493A3F8E493A34003F68001F296
:1009F10008DFF48029E493A3F85407240CC8C33317
:100A0100C4540F4420C8834004F456800146F6DFE5
:100A1100E4800B0102040810204080900B6BE47EFF
:100A2100019360BCA3FF543F30E509541FFEE493DA
:100A3100A360010ECF54C025E060A840B8E493A3A1
:100A4100FAE493A3F8E493A3C8C582C8CAC583CACC
:100A5100F0A3C8C582C8CAC583CADFE9DEE780BE84
:010B8A00006A
:10080000C2D530F707B2D563F0FF05F030E70CB280
:10081000D5F4048463F0FF05F080018430D502F440
:020820000422B0
:10082200C2D5EC30E709B2D5E4C39DFDE49CFCEEF1
:1008320030E715B2D5E4C39FFFE49EFE120858C309
:10084200E49DFDE49CFC800312085830D507C3E404
:060852009FFFE49EFE2260
:10085800BC000BBE0029EF8DF084FFADF022E4CC84
:10086800F875F008EF2FFFEE33FEEC33FCEE9DEC4D
:10087800984005FCEE9DFE0FD5F0E9E4CEFD22ED93
:10088800F8F5F0EE8420D21CFEADF075F008EF2FDD
:10089800FFED33FD4007985006D5F0F222C398FDCE
:0508A8000FD5F0EA226B
:00000001FF
