:03000000020800F3
:0C080000787FE4F6D8FD758114020847EB
:1009BD000A083F065B4F666D7D077F6F01120C01C4
:0509CD001300011400FD
:08097500F8E6F5807F0A7E0020
:10097D00D3EF9400EE940040147D6E7C00ED1D705D
:0D098D00011CED4C70F7EF1F70E61E80E3BB
:01099A00223A
:10088C00E51275F00A12099BAFF0A907E51275F095
:10089C000A12099BFBE51375F00A12099BAFF0AA2B
:1008AC0007E51375F00A12099BC290C291C29224FB
:1008BC0008120975D290C291C29274082A12097555
:1008CC00C290D291C29274082B120975D290D29117
:1008DC00C292740829F8E6F5807F0A7E0002097D31
:10094C00AF12EF3395E0FEC3EF9409EE6480948010
:10095C004016D3EF940AEE64809480500BAF13EFE3
:09096C003395E04F7002B29422B1
:1009D300758901758C3C758AB0D2AFD2A9D28C22AD
:03000B000208ECFC
:1008EC00C0E0C0D075D000C006C007758C3C758ABE
:1008FC00B00514AF14EF3395E0FEC3EF9414EE641F
:10090C008094804032751400151263A0FFAF12EF73
:10091C003395E0FED3EF9400EE648094805018156C
:10092C001375123BAF13EF3395E0C3648094805082
:10093C0006751302751200D007D006D0D0D0E03265
:0E09E3001209D3E4F5A012088C12094C80F81A
:10080C000209E3E493A3F8E493A34003F68001F216
:10081C0008DFF48029E493A3F85407240CC8C333ED
:10082C00C4540F4420C8834004F456800146F6DFBC
:10083C00E4800B01020408102040809009BDE47E86
:10084C00019360BCA3FF543F30E509541FFEE493B1
:10085C00A360010ECF54C025E060A840B8E493A378
:10086C00FAE493A3F8E493A3C8C582C8CAC583CAA3
:10087C00F0A3C8C582C8CAC583CADFE9DEE780BE5B
:0109D2000024
:10099B00C2D530F707B2D563F0FF05F030E70CB2E4
:1009AB00D5F4048463F0FF05F080018430D502F4A4
:0209BB00042214
:00000001FF
