:030000000209D31F
:0C09D300787FE4F6D8FD75811C020A1A3A
:100B74000A083F065B4F666D7D077F6F0112050112
:0F0B8400130002140018011800011600011700D9
:0B0B4B0074082FF8E6F5807F017E00A3
:100B5600D3EF9400EE940040147D6E7C00ED1D7082
:0D0B6600011CED4C70F7EF1F70E61E80E3E0
:010B7300225F
:10094100E51275F00A12080085F01AE51275F00A31
:10095100120800F519E51375F00A12080085F01C5C
:10096100E51375F00A120800F51BAE14AF157C00F3
:100971007D0A120822AB05AE14AF157C007D0A1268
:100981000822AA07C290C291C2927408251B120BB9
:100991004ED290C291C2927408251C120B4EC29085
:1009A100D291C29274082519120B4ED290D291C2E3
:1009B100927408251A120B4EC290C291D292AF02C4
:1009C100120B4BD290C291D292AF03120B4BE4F5B2
:0109D10080A5
:0109D2002202
:100ADD00E51675F00A120800AFF0A907E51675F0D6
:100AED000A120800FFE51775F00A120800AEF0AB08
:100AFD0006E51775F00A120800FAC294C295C2965F
:100B0D0074082FF8E6F5B0120B52D294C295C29626
:100B1D00740829F8E6F5B0120B52C294D295C2961C
:100B2D0074082AF8E6F5B0120B52D294D295C296FB
:0D0B3D0074082BF8E6F5B0120B52E4F580B9
:010B4A002288
:090BD600B2A07F327E00020B5632
:100B9400AF12EF3395E04F700DAF13EF3395E04F85
:0F0BA4007004F514F515E51545147002B2A7227B
:1008AD0020A2137F057E00120B5620A206751400A0
:1008BD0075151830A2FD30A13E20A30F7F057E00D7
:1008CD00120B5620A302051630A3FD20A4117F059F
:1008DD007E00120B5620A4040516051630A4FD202B
:1008ED00A5517F057E00120B5620A5067403251613
:1008FD00F51620A53E80FB20A30F7F057E00120B71
:10090D005620A302051730A3FD20A4117F057E00FC
:10091D00120B5620A4040517051730A4FD20A513AE
:10092D007F057E00120B5620A50674032517F517BB
:04093D0030A5FD22C2
:100BC600758901758C3C758AB0D2AFD2A9D28C22B8
:03000B00020A5F87
:100A5F00C0E0C0D075D000C004C005C006C0077587
:100A6F008C3C758AB00518AF18EF3395E0FEC3EFD5
:100A7F009414EE6480948040487518001512E515A3
:100A8F00151570021514E5146480948050067514C2
:100A9F0000751500AF12EF3395E0FED3EF9400EE23
:100AAF0064809480501B151375123BAF13EF339571
:100ABF00E0C3648094805009751300751200120B07
:0E0ACF00D6D007D006D005D004D0D0D0E0326B
:100BB300120BC6D2A0120941120ADD1208AD120BA4
:030BC3009480F229
:1009DF00020BB3E493A3F8E493A34003F68001F270
:1009EF0008DFF48029E493A3F85407240CC8C33319
:1009FF00C4540F4420C8834004F456800146F6DFE8
:100A0F00E4800B0102040810204080900B74E47EF8
:100A1F00019360BCA3FF543F30E509541FFEE493DC
:100A2F00A360010ECF54C025E060A840B8E493A3A3
:100A3F00FAE493A3F8E493A3C8C582C8CAC583CACE
:100A4F00F0A3C8C582C8CAC583CADFE9DEE780BE86
:010B93000061
:10080000C2D530F707B2D563F0FF05F030E70CB280
:10081000D5F4048463F0FF05F080018430D502F440
:020820000422B0
:10082200C2D5EC30E709B2D5E4C39DFDE49CFCEEF1
:1008320030E715B2D5E4C39FFFE49EFE120858C309
:10084200E49DFDE49CFC800312085830D507C3E404
:060852009FFFE49EFE2260
:10085800BC000BBE0029EF8DF084FFADF022E4CC84
:10086800F875F008EF2FFFEE33FEEC33FCEE9DEC4D
:10087800984005FCEE9DFE0FD5F0E9E4CEFD22ED93
:10088800F8F5F0EE8420D21CFEADF075F008EF2FDD
:10089800FFED33FD4007985006D5F0F222C398FDCE
:0508A8000FD5F0EA226B
:00000001FF
